:1000000019C033C032C031C030C02FC02EC02DC087
:100010002CC02BC02AC029C028C027C026C025C09C
:1000200024C023C022C021C020C01FC01EC01DC0CC
:100030001CC01BC011241FBECFEFD2E0DEBFCDBF5E
:1000400011E0A0E0B1E0E6E7F1E002C005900D921A
:10005000A031B107D9F711E0A0E1B1E001C01D92D4
:10006000A031B107E1F730D084C0CACF0F931F93FE
:10007000CF93DF93082F192FC1E0D0E0F801608102
:100080000E5F1F4FCE0167D02196C930D105B1F761
:10009000DF91CF911F910F9108950F931F93CF93ED
:1000A000DF93C82FD92F01E010E0C8014CD088831E
:1000B000198222960F5F1F4F09301105B1F7DF91AA
:1000C000CF911F910F9108950F931F93CF93DF93BB
:1000D000CDB7DEB7A0970FB6F894DEBF0FBECDBF89
:1000E000DE011196E0E0F1E080E101900D92815097
:1000F000E1F78FEF87B984B9CE010196B7DF01E050
:1001000010E0C80120D088B90F5F1F4F09301105DA
:10011000C1F7CE014196C1DFFE017196CE018196F5
:100120002081329625B9E817F907D1F780E090E0F1
:10013000A0960FB6F894DEBF0FBECDBFDF91CF9172
:100140001F910F910895F999FECF12BC81BDF89AC5
:10015000992780B50895262FF999FECF1FBA12BCB2
:1001600081BD20BD0FB6F894FA9AF99A0FBE019698
:060170000895F894FFCF92
:1001760030003100320033003400350036003700DD
:00000001FF
