:1000000019C033C032C031C030C02FC02EC02DC087
:100010002CC02BC02AC029C028C027C026C025C09C
:1000200024C023C022C021C020C01FC01EC01DC0CC
:100030001CC01BC011241FBECFEFD2E0DEBFCDBF5E
:1000400011E0A0E0B1E0EAE5F3E002C005900D9216
:10005000A033B107D9F711E0A0E3B1E001C01D92D0
:10006000A033B107E1F7D2D076C1CACF449A89EF65
:1000700090E00197F1F700C00000449808950F93B5
:100080001F93CF93DF938C01007F10701595079518
:10009000159507951595079515950795EC01CF7062
:1000A000D07088B1807F88B988B1802B88B9DEDFB5
:1000B00088B10095082308B988B18C2B88B9D6DFA0
:1000C00089EF90E00197F1F700C0000088B1C0957A
:1000D000C823C8B9DF91CF911F910F910895EF9276
:1000E000FF920F931F93CF93DF938FE387B988B16C
:1000F000807C88B9209A2898C4E0D0E006E310E01C
:1001000088B1836088B9F801099589EF90E001977B
:10011000F1F700C0000088B18C7F88B9219781F782
:10012000419AF801099589EF90E00197F1F700C035
:1001300000004198CFE3D0E088E290E0FE0109950D
:100140008FE090E0FE01099586E090E0FE010995C0
:10015000DF91CF911F910F91FF90EF9008958FE362
:1001600087B94598209A289881E090E088DF089523
:100170002FE327B9459A209A289881DF08950F9395
:100180001F93CF93DF93EC018FE387B94598209AB3
:1001900028980FE310E08CE090E0F8010995C23058
:1001A000D10569F482E090E0F8010995C8E2D0E059
:1001B00084E190E0F80109952197D1F704C082E02D
:1001C00090E0F80109958FE090E0F8010995DF9142
:1001D000CF911F910F9108950F931F93CF93DF93AA
:1001E000C82FD92FCB01CBDF0C2F1D2FC0E0D0E0C3
:1001F000F80181918F0190E0BBDF2196C031D105DC
:10020000B9F7DF91CF911F910F9108950F931F932D
:10021000CF93DF93CDB7DEB7E0970FB6F894DEBF8C
:100220000FBECDBFDE011196E0E0F1E080E101906C
:100230000D928150E1F7DE015196E0E1F1E080E1BD
:1002400001900D928150E1F7DE019196E0E2F1E03C
:1002500080E101900D928150E1F741DF80DF8FE96D
:1002600096E8A1E081509040A040E1F700C0000076
:10027000CE01019661E070E0AFDF8FE996E8A1E082
:1002800081509040A040E1F700C00000CE014196AF
:1002900062E070E0A1DF8FE392E4AFE08150904034
:1002A000A040E1F700C000005ADFCE01819661E076
:1002B00070E092DF82E090E062DF8FE39DE0A3E0F8
:1002C00081509040A040E1F700C0000000E310E042
:1002D000C8014EDF8FE39DE0A3E081509040A04035
:1002E000E1F700C000000F5F1F4F0A33110581F7CF
:1002F0008FE392E4AFE081509040A040E1F700C06E
:1003000000002DDF8FE996E8A1E081509040A040E9
:10031000E1F700C00000CE01019661E070E05CDF13
:100320008FE996E8A1E081509040A040E1F700C03D
:100330000000CE01419662E070E04EDF80E090E088
:10034000E0960FB6F894DEBF0FBECDBFDF91CF9120
:0A0350001F910F910895F894FFCF5C
:10035A00434F4441204B414D412020202020202062
:10036A00524F434B5321212120202020202020209E
:10037A00454E54455220434F4445202020202020FA
:00000001FF
