:1000000019C033C032C0F7C230C02FC02EC02DC0BF
:100010002CC02BC02AC029C028C027C026C025C09C
:1000200024C023C022C021C020C01FC01EC01DC0CC
:100030001CC01BC011241FBECFEFD2E0DEBFCDBF5E
:1000400011E0A0E0B1E0EEE9FAE002C005900D9207
:10005000A239B107D9F711E0A2E9B1E001C01D92C0
:10006000A83AB107E1F702D318C5CACF449A89EF7D
:1000700090E00197F1F700C00000449808950F93B5
:100080001F93CF93DF938C01007F10701595079518
:10009000159507951595079515950795EC01CF7062
:1000A000D07088B1807F88B988B1802B88B9DEDFB5
:1000B00088B10095082308B988B18C2B88B9D6DFA0
:1000C00089EF90E00197F1F700C0000088B1C0957A
:1000D000C823C8B9DF91CF911F910F910895CF9395
:1000E000DF93EC018FE387B94598509A58988CE0DC
:1000F00090E0C5DFC230D10559F482E090E0BFDF67
:10010000C8E2D0E084E190E0BADF2197D9F703C0DC
:1001100082E090E0B4DF8FE090E0B1DFDF91CF913B
:1001200008952FE327B9459A509A5898A8DF089563
:100130000F931F93CF93DF93C82FD92FCB01CFDF1E
:100140000C2F1D2FC0E0D0E0F80181918F0190E0CD
:10015000E8DF2196C031D105B9F7DF91CF911F912A
:100160000F9108958FE387B94598509A589881E088
:1001700090E085DF0895CF93DF938FE387B988B14F
:10018000807C88B9509A5898C4E0D0E088B18360E8
:1001900088B96CDF89EF90E00197F1F700C00000AB
:1001A00088B18C7F88B9219789F7419A5FDF89EF01
:1001B00090E00197F1F700C00000419888E290E0DC
:1001C0005EDF8FE090E05BDF86E090E058DFDF915C
:1001D000CF910895519A8130910511F4599808955D
:1001E000599A08950F931F93CF93FC0160817181F9
:1001F0006115710581F08C010E5F1F4FC1E08C2FDE
:1002000090E03DD4CF5FF801619171918F0161154C
:100210007105A9F701C0C1E08C2F90E030D480E0D7
:1002200090E060E02CD4CF911F910F910895EF9250
:10023000FF920F931F93CF93DF937C0180E090E0B8
:1002400016D4882321F48701C0E0D0E00EC080914D
:100250008001909181010097B1F420E030E023C04B
:10026000F801819391938F0121968C2F8F5F90E0FD
:10027000FED390E00097A1F7CC0FDD1FCE0DDF1D60
:100280001982188217C0D701E2E8F1E020E030E0DF
:100290008D939D932F5F3F4F508141813296852FE3
:1002A000942F0097A9F7220F331FE20EF31EF701D8
:1002B00091838083DF91CF911F910F91FF90EF90F9
:1002C000089581E28A95F1F70000189B0FC0199BF1
:1002D00010C01A9B11C083B1992787FD9095809516
:1002E00090958827990F881F9927089581E090E0BD
:1002F000089581E090E0089581E090E00895189BD2
:1003000007C0199B08C01A9B09C01F9B0AC008950B
:1003100080E090E0089581E090E0089582E090E030
:10032000089587E090E008952B9A6AE06A95F1F7C6
:1003300093B12B982C9A7AE07A95F1F723B130E0BB
:10034000082E02C0359527950A94E2F720FD03C0D8
:1003500021E030E002C022E030E02C982D9A9AE0B3
:100360009A95F1F743B150E0BA0102C075956795CF
:100370008A95E2F760FF02C023E030E02D98822FDB
:10038000932F0895009751F46130710581F1623027
:10039000710581F163307105E9F42FC08130910559
:1003A00051F46130710561F16230710561F16330C2
:1003B0007105E9F52BC08230910561F4613071055A
:1003C00041F16230710541F16330710581F529E336
:1003D00030E02DC08730910551F561307105F9F09D
:1003E00062307105F9F06330710509F51EC021E333
:1003F00030E01DC022E330E01AC023E330E017C034
:1004000024E330E014C025E330E011C026E330E0FF
:100410000EC027E330E00BC028E330E008C02AE23A
:1004200030E005C020E330E002C023E230E0822F5C
:10043000932F0895CF93DF9362DFEC0175DFBC014A
:10044000CE01A0DF9093930180939201DF91CF9131
:100450000895A0919401B091950180E090E064E945
:1004600071E001C0C9019C012F5F3F4FF901EE0F00
:10047000FF1FE60FF71F40815181FC01EE0FFF1FA8
:10048000E60FF71F518340832930310559F7109249
:10049000A7011092A6018A2F9B2F0895DC0189E005
:1004A00090E064E971E09C0121503040F901EE0FC9
:1004B000FF1FE60FF71F40815181FC01EE0FFF1F68
:1004C000E60FF71F51834083C901009761F7B0938E
:1004D0009501A0939401089580E090E024E931E033
:1004E000FC01EE0FFF1FE20FF31F11821082019635
:1004F0008A309105A9F70895E82FF92F84E090E05C
:1005000041E050E064B120813296DA0102C0AA0FC6
:10051000BB1F2A95E2F79D012095262324B9019758
:1005200089F70895E82FF92F20E030E041E050E00E
:1005300065B1DF01CA01008002C0880F991F0A94CB
:10054000E2F78095862385B964B13296CA010C9092
:1005500002C0880F991F0A94E2F7862B84B92F5F97
:100560003F4F2330310521F70895F894009709F0A3
:100570005C9AE3E2F4EF3197F1F700C000000097D6
:1005800031F409C01E99FECF80E090E004C01E99AE
:10059000F9CF80E090E05C9878940895F8948130E9
:1005A000910509F05B9AE3E2F4EF3197F1F700C0AF
:1005B00000008130910531F409C01E99FECF81E021
:1005C00090E004C01E99F9CF81E090E05B987894A8
:1005D0000895569A5E9A81E090E00895569A5E9842
:1005E00080E090E00895579A8130910511F45F9A68
:1005F00008955F9808951F920F920FB60F921124DD
:100600002F933F934F935F936F937F938F939F931A
:10061000AF93BF93EF93FF9381EE94E00197F1F7CF
:1006200000C000004EDE009741F004DF8DE399E446
:100630000197F1F700C0000008C043DE009729F4DD
:10064000809192019091930129DFFF91EF91BF91E9
:10065000AF919F918F917F916F915F914F913F915A
:100660002F910F900FBE0F901F901895CF93DF938F
:10067000CDB7DEB7CB58D0400FB6F894DEBF0FBE73
:10068000CDBFDE011196E0E0F1E082E101900D9234
:100690008150E1F7DE015396E2E1F1E088E001905C
:1006A0000D928150E1F7DE015B96EAE1F1E086E030
:1006B00001900D928150E1F7E8E6F0E080818160E1
:1006C0008083FE0173969E01255E3F4FABE6B0E04E
:1006D00041E050E06C91808132968A0102C0000FA7
:1006E000111F8A95E2F7C801862B8C93E217F30756
:1006F00089F77894DE019396E0E2F1E080E10190E1
:100700000D928150E1F7DE01D396E0E3F1E080E164
:1007100001900D928150E1F7DE01AD5BBF4FE0E447
:10072000F1E080E101900D928150E1F7DE01AD5AD8
:10073000BF4FE0E5F1E080E101900D928150E1F7DB
:10074000DE01AD59BF4FE0E6F1E080E101900D928E
:100750008150E1F7DE01AD58BF4FE0E7F1E080E105
:1007600001900D928150E1F7CE014396C5DECE0196
:100770004B96D8DE00DDB0DE1AA219A280E090E030
:1007800032DF82E090E025DF6C0181309105C9F70E
:100790000F2EF4E9EF2EF1E0FF2EF02D7E2C6F2CC2
:1007A000E1DCCE01839661E070E0C2DC82E090E0A3
:1007B00096DCCE01019616DDCE018D579F4F37DDB9
:1007C00081E0C816D10409F0B2C088249924B82C5D
:1007D000A92CE9A1FAA1EE0FFF1FEE0DFF1D8081EC
:1007E00091810097B1F3D7018D919C91119783323C
:1007F000910569F4B7DCCE01839661E070E098DC86
:1008000082E090E06CDC68DE9AA289A28BC0F701DE
:10081000808191818033910574F0808191818A3348
:1008200091054CF4808191817CDC89A19AA101968B
:100830009AA389A377C0D7018D919C9111978A3291
:10084000910509F06FC005DE8DDC81E090E047DCAA
:100850008401F801EE0FFF1FEE0DFF1D80819181D5
:1008600060DC0F5F1F4F0A30110599F78FE39DE0A1
:10087000A3E081509040A040E1F700C00000D70104
:100880008D919C911197009709F44CC0FE01ED5792
:10089000FF4F61E070E09401C901880F991F8E0D30
:1008A0009F1DDC014D915C911197819190E048175B
:1008B000590711F06B2D7A2D2F5F3F4FC901880F1B
:1008C000991F8E0D9F1DDC018D919C9111970097B2
:1008D00019F7C90161157105F9F41816190614F50F
:1008E00041DCCE01C39661E070E022DC8FE392E44C
:1008F000AFE081509040A040E1F700C00000ECDD87
:100900009AA289A22FDCCE01839661E070E010DC10
:1009100082E090E0E4DB06C0121613061CF4C60168
:100920005DDE6C0191E0C916D10409F452CFC11407
:10093000D10409F035CF16DCCE018D5B9F4F61E00D
:1009400070E0F6DBCE018D5A9F4F62E070E0F0DB85
:10095000C3DD1AA219A2E9A1FAA1EE0FFF1FEE0D45
:10096000FF1D808191810097B1F3D7018D919C91FA
:1009700011978332910579F4C6012BDE6C01ACDD51
:100980001AA219A2CE01839661E070E0D1DB82E069
:1009900090E0A5DB67C0F701808191818A329105E3
:1009A00009F060C0DFDB98DD1AA219A2CE018D59D3
:1009B0009F4F61E070E0BCDB82E090E090DB4AC0DA
:1009C000E9A1FAA1EE0FFF1FEE0DFF1D80819181BD
:1009D0000097B1F3D7018D919C91119780339105C8
:1009E000A4F08D919C9111978A33910574F489A19B
:1009F0009AA1893091054CF48D919C9192DB89A14B
:100A00009AA101969AA389A325C0F70180819181BB
:100A10008A32910529F41DDD872D962DE3DB22C056
:100A20008081918183329105A9F49CDBCE018D58A0
:100A30009F4F61E070E07CDB8FE392E4AFE0815098
:100A40009040A040E1F700C0000046DD1AA219A2C4
:100A500089DB08C0D7018D919C9111978A3291054D
:100A600009F0AECFC114D10409F09ACE64CFF99940
:100A7000FECF12BC81BDF89A992780B50895262F24
:100A8000F999FECF1FBA12BC81BD20BD0FB6F894F4
:0E0A9000FA9AF99A0FBE01960895F894FFCFD6
:100A9E0033003200310000000000000000000000B2
:100AAE000000000001000200070003000400050022
:100ABE00454E54455220434F4445202020202020AF
:100ACE00494E434F525245435420434F44452020F4
:100ADE0023202D20544F204C4F434B2020202020EC
:100AEE002A202D20534554204E455720434F444530
:100AFE00534554204E455720434F44452020202037
:100B0E0020202D2D43414E43454C45442D2D202074
:100B1E003000300030003000000000000000000007
:020B2E000000C5
:00000001FF
