:1000000019C033C032C031C030C02FC02EC02DC087
:100010002CC02BC02AC029C028C027C026C025C09C
:1000200024C023C022C021C020C01FC01EC01DC0CC
:100030001CC01BC011241FBECFEFD2E0DEBFCDBF5E
:1000400011E0A0E0B1E0E2E6F4E002C005900D921C
:10005000A230B107D9F711E0A2E0B1E001C01D92D2
:10006000A631B107E1F7E4D1FAC1CACF449A89EFCA
:1000700090E00197F1F700C00000449808950F93B5
:100080001F93CF93DF938C01007F10701595079518
:10009000159507951595079515950795EC01CF7062
:1000A000D07088B1807F88B988B1802B88B9DEDFB5
:1000B00088B10095082308B988B18C2B88B9D6DFA0
:1000C00089EF90E00197F1F700C0000088B1C0957A
:1000D000C823C8B9DF91CF911F910F910895CF9395
:1000E000DF93EC018FE387B94598509A58988CE0DC
:1000F00090E0C5DFC230D10559F482E090E0BFDF67
:10010000C8E2D0E084E190E0BADF2197D9F703C0DC
:1001100082E090E0B4DF8FE090E0B1DFDF91CF913B
:1001200008952FE327B9459A509A5898A8DF089563
:100130000F931F93CF93DF93C82FD92FCB01CFDF1E
:100140000C2F1D2FC0E0D0E0F80181918F0190E0CD
:10015000E8DF2196C031D105B9F7DF91CF911F912A
:100160000F9108958FE387B94598509A589881E088
:1001700090E085DF0895CF93DF938FE387B988B14F
:10018000807C88B9509A5898C4E0D0E088B18360E8
:1001900088B96CDF89EF90E00197F1F700C00000AB
:1001A00088B18C7F88B9219789F7419A5FDF89EF01
:1001B00090E00197F1F700C00000419888E290E0DC
:1001C0005EDF8FE090E05BDF86E090E058DFDF915C
:1001D000CF910895519A8130910511F4599808955D
:1001E000599A08950F931F93CF93DF93082F192FD8
:1001F000C1E0D0E0F80160810E5F1F4FCE0121D138
:100200002196C930D105B1F7DF91CF911F910F91A0
:1002100008950F931F93CF93DF93C82FD92F01E039
:1002200010E0C80106D18883198222960F5F1F4F04
:1002300009301105B1F7DF91CF911F910F9108950A
:1002400081E28A95F1F70000189B0FC0199B10C03E
:100250001A9B11C083B1992787FD90958095909541
:100260008827990F881F9927089581E090E00895C5
:1002700081E090E0089581E090E00895189B07C028
:10028000199B08C01A9B09C01F9B0AC0089580E0F3
:1002900090E0089581E090E0089582E090E0089574
:1002A00087E090E008952B9A6AE06A95F1F793B1A0
:1002B0002B982C9A7AE07A95F1F723B130E0082E4A
:1002C00002C0359527950A94E2F720FD03C021E08E
:1002D00030E002C022E030E02C982D9A9AE09A9506
:1002E000F1F743B150E0BA0102C0759567958A9560
:1002F000E2F760FF02C023E030E02D98822F932FB9
:100300000895009751F46130710581F162307105F3
:1003100081F163307105E9F42FC08130910551F40A
:100320006130710561F16230710561F16330710511
:10033000E9F52BC08230910561F46130710541F11E
:100340006230710541F16330710581F529E330E0D8
:100350002DC08730910551F561307105F9F062309B
:100360007105F9F06330710509F51EC021E330E035
:100370001DC022E330E01AC023E330E017C024E3BD
:1003800030E014C025E330E011C026E330E00EC0B9
:1003900027E330E00BC028E330E008C02AE230E079
:1003A00005C020E330E002C023E230E0822F932F2B
:1003B0000895CF93DF9362DFEC0175DFBC01CE01BE
:1003C000A0DF9093030180930201DF91CF91089504
:1003D00044E051E08091040190910501FA01405FF1
:1003E0005F4F2281338121933193E417F507C9F7D9
:1003F00010921501109214010895AC01E4E1F1E0AE
:10040000CF0140973291229133832283E817F90775
:10041000C9F750930501409304010895E4E0F1E029
:10042000CF01429611921192E817F907D9F7089572
:10043000FFCFF999FECF12BC81BDF89A992780B5FC
:100440000895262FF999FECF1FBA12BC81BD20BD99
:100450000FB6F894FA9AF99A0FBE01960895F89497
:02046000FFCFCC
:02046200010097
:00000001FF
