:1000000019C033C032C0D6C230C02FC02EC02DC0E0
:100010002CC02BC02AC059C328C027C026C025C069
:1000200024C023C022C021C020C01FC01EC01DC0CC
:100030001CC01BC011241FBECFEFD2E0DEBFCDBF5E
:1000400011E0A0E0B1E0E0E9FBE002C005900D9214
:10005000A238B107D9F711E0A2E8B1E001C01D92C2
:10006000AE3AB107E1F786D391C5CACF10928500A9
:10007000109284000895449A89EF90E00197F1F777
:1000800000C00000449808950F931F93CF93DF930F
:100090008C01007F1070159507951595079515959E
:1000A000079515950795EC01CF70D07088B1807FCA
:1000B00088B988B1802B88B9DEDF88B10095082324
:1000C00008B988B18C2B88B9D6DF89EF90E0019709
:1000D000F1F700C0000088B1C095C823C8B9DF910E
:1000E000CF911F910F910895CF93DF93EC018FE390
:1000F00087B94598509A58988CE090E0C5DFC23097
:10010000D10559F482E090E0BFDFC8E2D0E084E19D
:1001100090E0BADF2197D9F703C082E090E0B4DF26
:100120008FE090E0B1DFDF91CF9108952FE327B901
:10013000459A509A5898A8DF08950F931F93CF932C
:10014000DF93C82FD92FCB01CFDF0C2F1D2FC0E09D
:10015000D0E0F80181918F0190E0E8DF2196C03175
:10016000D105B9F7DF91CF911F910F9108958FE3DA
:1001700087B94598509A589881E090E085DF0895B6
:10018000CF93DF938FE387B988B1807C88B9509A89
:100190005898C4E0D0E088B1836088B96CDF89EFFB
:1001A00090E00197F1F700C0000088B18C7F88B91A
:1001B000219789F7419A5FDF89EF90E00197F1F786
:1001C00000C00000419888E290E05EDF8FE090E0A0
:1001D0005BDF86E090E058DFDF91CF910895519A80
:1001E0008130910511F459980895599A08950F9303
:1001F0001F93CF93FC01608171816115710581F0BE
:100200008C010E5F1F4FC1E08C2F90E0B1D4CF5F07
:10021000F801619171918F0161157105A9F701C014
:10022000C1E08C2F90E0A4D480E090E060E0A0D406
:10023000CF911F910F910895EF92FF920F931F930B
:10024000CF93DF937C0180E090E08AD4882321F46F
:100250008701C0E0D0E00EC08091700190917101E3
:100260000097B1F420E030E023C0F801819391932E
:100270008F0121968C2F8F5F90E072D490E00097D1
:10028000A1F7CC0FDD1FCE0DDF1D1982188217C01C
:10029000D701E2E7F1E020E030E08D939D932F5FFE
:1002A0003F4F508141813296852F942F0097A9F7B7
:1002B000220F331FE20EF31EF70191838083DF913B
:1002C000CF911F910F91FF90EF900895CF93DF93FF
:1002D000E8E6F0E0208121602083E82FF92F24E078
:1002E00030E0ABE6B0E041E050E06C9180813296C6
:1002F000EA0102C0CC0FDD1F8A95E2F7CE01862B02
:100300008C932150304089F7DF91CF91089586EA90
:100310008A95F1F700C01F9B0BC0189B0CC0199B5E
:100320000DC081E090E01A9B0BC080E090E0089542
:1003300081E090E0089581E090E0089581E090E010
:1003400008951F9B07C0189B08C0199B09C01A9BE2
:100350000AC0089587E090E0089580E090E0089555
:1003600081E090E0089582E090E008952B9A66EA9B
:100370006A95F1F700C093B12B982C9A76EA7A959A
:10038000F1F700C023B130E0082E02C03595279563
:100390000A94E2F720FD03C021E030E002C022E031
:1003A00030E02C982D9A96EA9A95F1F700C043B167
:1003B00050E0BA0102C0759567958A95E2F760FF33
:1003C00002C023E030E02D98822F932F08958730CC
:1003D000910551F46130710579F16230710579F15F
:1003E00063307105E1F42EC0009751F4613071055E
:1003F00061F16230710561F163307105E9F52BC07F
:100400008130910561F46130710541F1623071050F
:1004100041F16330710581F529E330E02DC0823070
:10042000910551F561307105F9F062307105F9F00F
:100430006330710509F51EC021E330E01DC022E3E1
:1004400030E01AC023E330E017C024E330E014C0EA
:1004500025E330E011C026E330E00EC027E330E0B2
:100460000BC028E330E008C02AE230E005C020E3FA
:1004700030E002C023E230E0822F932F0895CF9323
:10048000DF935FDFEC0172DFBC01CE01A0DF909350
:10049000870180938601DF91CF910895A091880113
:1004A000B091890180E090E068E871E001C0C90185
:1004B0009C012F5F3F4FF901EE0FFF1FE60FF71F63
:1004C00040815181FC01EE0FFF1FE60FF71F5183A2
:1004D00040832930310559F710929B0110929A01FF
:1004E0008A2F9B2F0895DC0189E090E068E871E095
:1004F0009C0121503040F901EE0FFF1FE60FF71F5E
:1005000040815181FC01EE0FFF1FE60FF71F518361
:100510004083C901009761F7B0938901A0938801D6
:10052000089580E090E028E831E0FC01EE0FFF1F25
:10053000E20FF31F1182108201968A309105A9F70C
:100540000895E82FF92F84E090E041E050E064B195
:1005500020813296DA0102C0AA0FBB1F2A95E2F76A
:100560009D012095262324B9019789F70895E82F46
:10057000F92F20E030E041E050E065B1DF01CA0131
:10058000008002C0880F991F0A94E2F780958623A5
:1005900085B964B13296CA010C9002C0880F991FC8
:1005A0000A94E2F7862B84B92F5F3F4F2330310541
:1005B00021F708951F920F920FB60F9211242F93D7
:1005C0003F934F935F936F937F938F939F93AF93DB
:1005D000BF93EF93FF9389EF90E00197F1F700C08D
:1005E000000095DE009741F04ADF83ED90E301972C
:1005F000F1F700C000000CC08ADE009749F480913A
:100600008601909187016FDF81E090E0E8DD2EDDCB
:1006100081EE94E00197F1F700C00000FF91EF91A7
:10062000BF91AF919F918F917F916F915F914F910A
:100630003F912F910F900FBE0F901F901895F89437
:10064000009709F05C9AE3E2F4EF3197F1F700C00C
:100650000000009731F409C01E99FECF80E090E0C1
:1006600004C01E99F9CF80E090E05C9878940895DA
:10067000F8948130910509F05B9AE3E2F4EF319749
:10068000F1F700C000008130910531F409C01E99D6
:10069000FECF81E090E004C01E99F9CF81E090E0A8
:1006A0005B9878940895569A5E9A81E090E0089558
:1006B000569A5E9880E090E00895579A81309105AF
:1006C00011F45F9A08955F9808951F920F920FB6E4
:1006D0000F9211242F933F934F935F936F937F93C8
:1006E0008F939F93AF93BF93EF93FF9389EF90E026
:1006F0000197F1F700C0000080910E0190910F0169
:100700008130910541F0B2DC89EF90E00197F1F77B
:1007100000C000000CC08091880190918901009771
:1007200031F080E090E05BDD83E290E0DCDEFF9181
:10073000EF91BF91AF919F918F917F916F915F9159
:100740004F913F912F910F900FBE0F901F901895D2
:10075000EFE6F0E0808182608083E1E8F0E0808174
:100760008560808380E090E1909389008093880089
:100770007DDC0895CF93DF93CDB7DEB762970FB6D8
:10078000F894DEBF0FBECDBFDE011196E0E0F1E0D0
:1007900088E001900D928150E1F7DE011996E8E0C2
:1007A000F1E086E001900D928150E1F7CE010196D3
:1007B0008DDD7894CE010196C4DECE010996D7DE98
:1007C000DFDC81E090E00BDDACDE80E090E075DF07
:1007D00007C082E090E067DF90930F0180930E01E5
:1007E00080910E0190910F018130910591F7B0DF5A
:1007F0000F2EFCE94F2EF1E05F2EF02D0F2EF8E8C2
:10080000EF2EF1E0FF2EF02D0F2EF2E1AF2EBB24E4
:10081000F02DA40CB51CE98AFA8A0F2EF0E52F2ED4
:10082000F1E03F2EF02DA3DC80E691E061E070E086
:1008300084DC82E090E058DCC201FEDC882499244C
:100840000F2EF0E66F2EF1E07F2EF02DD82CC92C64
:10085000D0C08F859889880F991F8E0D9F1DDC0150
:100860008D919C9111970097A1F3F701808191815F
:100870008332910561F47BDCC30161E070E05DDCF3
:1008800082E090E031DC4DDE988A8F86B2C08081B4
:100890009181803391059CF0808191818A3391050B
:1008A00074F48F859889883091054CF4808191810A
:1008B0003DDC8F8598890196988B8F879AC0F701C8
:1008C000808191818A32910509F093C090928301D1
:1008D00080928201E3DD4BDC81E090E005DC840165
:1008E000C801880F991F8E0D9F1DDC018D919C9171
:1008F0001DDC0F5F1F4F0A30110591F782E090E079
:10090000F3DB8201F801819191918F010FDC0A15CF
:100910001B05C1F78FE39DE0A3E081509040A0400C
:10092000E1F700C000004091820150918301CA01AB
:10093000880F991F8E0D9F1DDC018D919C91119741
:10094000009709F44AC0CA01880F991FFC01E456B8
:10095000FE4F61E070E0CA01880F991F8E0D9F1D48
:10096000DC018D919C911197219131918217930710
:1009700011F06D2D7C2D4F5F5F4FCA01880F991FBD
:100980008E0D9F1DDC018D919C911197009719F799
:10099000CA01409382015093830161157105E9F406
:1009A0001816190634F5E3DBC10161E070E0C5DB20
:1009B0008FE392E4AFE081509040A040E1F700C0A7
:1009C0000000AFDD988A8F86D2DBC30161E070E062
:1009D000B4DB82E090E088DB0CC0141615064CF402
:1009E00080910E0190910F0163DE90930F0180932F
:1009F0000E0180910E0190910F018130910509F453
:100A000028CF98C0B4DB80E491E061E070E095DB32
:100A100080E391E062E070E090DB83DD188A1F865E
:100A20008F859889880F991F8E0D9F1DDC018D91F0
:100A30009C9111970097A1F3F701808191818332F6
:100A40009105A1F480910E0190910F012CDE9093FD
:100A50000F0180930E0165DD188A1F86C40161E0D5
:100A600070E06BDB82E090E03FDB72C080819181BF
:100A70008A32910509F06CC07ADB53DD188A1F8633
:100A8000C80161E070E059DB82E090E02DDB49C0F5
:100A90008F859889880F991F8E0D9F1DFC0180817D
:100AA00091810097A9F3D7018D919C911197803383
:100AB0009105A4F08D919C9111978A33910574F45E
:100AC0008F859889893091054CF48D919C912EDB0E
:100AD0008F8598890196988B8F8723C0F701808135
:100AE00091818A32910529F4D9DC89899A897FDB41
:100AF0002FC0808191818332910599F438DBC60142
:100B000061E070E01ADB8FE392E4AFE08150904047
:100B1000A040E1F700C0000004DD188A1F8627DB33
:100B200017C0D7018D919C9111978A32910509F0D8
:100B3000AFCF0EC000E211E00F2EF0E1CF2EF1E0BA
:100B4000DF2EF02D0F2EF0E68F2EF1E09F2EF02DF0
:100B500080910E0190910F01009709F064CE52CF61
:100B6000F999FECF12BC81BDF89A992780B50895F6
:100B7000262FF999FECF1FBA12BC81BD20BD0FB63A
:100B8000F894FA9AF99A0FBE01960895F894FFCF57
:100B9000070000000100020003000400050002003D
:100BA00020202D2D43414E43454C45442D2D2020E2
:100BB000534554204E455720434F44452020202084
:100BC0002A202D20534554204E455720434F44455D
:100BD00023202D20544F204C4F434B2020202020F9
:100BE000494E434F525245435420434F44452020E1
:100BF000454E54455220434F44452020202020207C
:100C00003000300030003000000000000000000024
:020C10000000E2
:00000001FF
