:1000000019C033C032C0DAC230C02FC02EC02DC0DC
:100010002CC02BC02AC05AC328C027C026C025C068
:1000200024C023C022C021C020C01FC01EC01DC0CC
:100030001CC01BC011241FBECFEFD2E0DEBFCDBF5E
:1000400011E0A0E0B1E0ECE5FBE002C005900D920C
:10005000A238B107D9F711E0A2E8B1E001C01D92C2
:10006000AC3AB107E1F784D377C5CACF10928500C7
:10007000109284000895449A89EF90E00197F1F777
:1000800000C00000449808950F931F93CF93DF930F
:100090008C01007F1070159507951595079515959E
:1000A000079515950795EC01CF70D07088B1807FCA
:1000B00088B988B1802B88B9DEDF88B10095082324
:1000C00008B988B18C2B88B9D6DF89EF90E0019709
:1000D000F1F700C0000088B1C095C823C8B9DF910E
:1000E000CF911F910F910895CF93DF93EC018FE390
:1000F00087B94598509A58988CE090E0C5DFC23097
:10010000D10559F482E090E0BFDFC8E2D0E084E19D
:1001100090E0BADF2197D9F703C082E090E0B4DF26
:100120008FE090E0B1DFDF91CF9108952FE327B901
:10013000459A509A5898A8DF08950F931F93CF932C
:10014000DF93C82FD92FCB01CFDF0C2F1D2FC0E09D
:10015000D0E0F80181918F0190E0E8DF2196C03175
:10016000D105B9F7DF91CF911F910F9108958FE3DA
:1001700087B94598509A589881E090E085DF0895B6
:10018000CF93DF938FE387B988B1807C88B9509A89
:100190005898C4E0D0E088B1836088B96CDF89EFFB
:1001A00090E00197F1F700C0000088B18C7F88B91A
:1001B000219789F7419A5FDF89EF90E00197F1F786
:1001C00000C00000419888E290E05EDF8FE090E0A0
:1001D0005BDF86E090E058DFDF91CF910895519A80
:1001E0008130910511F459980895599A08950F9303
:1001F0001F93CF93FC01608171816115710581F0BE
:100200008C010E5F1F4FC1E08C2F90E097D4CF5F21
:10021000F801619171918F0161157105A9F701C014
:10022000C1E08C2F90E08AD480E090E060E086D43A
:10023000CF911F910F910895EF92FF920F931F930B
:10024000CF93DF937C0180E090E070D4882321F489
:100250008701C0E0D0E00EC08091700190917101E3
:100260000097B1F420E030E023C0F801819391932E
:100270008F0121968C2F8F5F90E058D490E00097EB
:10028000A1F7CC0FDD1FCE0DDF1D1982188217C01C
:10029000D701E2E7F1E020E030E08D939D932F5FFE
:1002A0003F4F508141813296852F942F0097A9F7B7
:1002B000220F331FE20EF31EF70191838083DF913B
:1002C000CF911F910F91FF90EF900895CF93DF93FF
:1002D000E8E6F0E0208121602083E82FF92F24E078
:1002E00030E0ABE6B0E041E050E06C9180813296C6
:1002F000EA0102C0CC0FDD1F8A95E2F7CE01862B02
:100300008C932150304089F7DF91CF91089586EA90
:100310008A95F1F700C0189B0FC0199B10C01A9B5B
:1003200011C083B1992787FD909580959095882776
:10033000990F881F9927089581E090E0089581E042
:1003400090E0089581E090E00895189B07C0199B04
:1003500008C01A9B09C01F9B0AC0089580E090E066
:10036000089581E090E0089582E090E0089587E0AC
:1003700090E008952B9A66EA6A95F1F700C093B170
:100380002B982C9A76EA7A95F1F700C023B130E0E9
:10039000082E02C0359527950A94E2F720FD03C088
:1003A00021E030E002C022E030E02C982D9A96EA5D
:1003B0009A95F1F700C043B150E0BA0102C07595BB
:1003C00067958A95E2F760FF02C023E030E02D9840
:1003D000822F932F0895009751F46130710581F1B8
:1003E0006230710581F163307105E9F42FC081300D
:1003F000910551F46130710561F16230710561F16F
:1004000063307105E9F52BC08230910561F46130EC
:10041000710541F16230710541F16330710581F57B
:1004200029E330E02DC08730910551F56130710529
:10043000F9F062307105F9F06330710509F51EC0FD
:1004400021E330E01DC022E330E01AC023E330E0B6
:1004500017C024E330E014C025E330E011C026E3E8
:1004600030E00EC027E330E00BC028E330E008C0E6
:100470002AE230E005C020E330E002C023E230E0B1
:10048000822F932F0895CF93DF935FDFEC0172DF0C
:10049000BC01CE01A0DF9093850180938401DF91A0
:1004A000CF910895A0918601B091870180E090E0FE
:1004B00066E871E001C0C9019C012F5F3F4FF9015F
:1004C000EE0FFF1FE60FF71F40815181FC01EE0F79
:1004D000FF1FE60FF71F518340832930310559F77D
:1004E00010929901109298018A2F9B2F0895DC0198
:1004F00089E090E066E871E09C0121503040F9010C
:10050000EE0FFF1FE60FF71F40815181FC01EE0F38
:10051000FF1FE60FF71F51834083C901009761F762
:10052000B0938701A0938601089580E090E026E8CB
:1005300031E0FC01EE0FFF1FE20FF31F118210826A
:1005400001968A309105A9F70895E82FF92F84E0E4
:1005500090E041E050E064B120813296DA0102C0BF
:10056000AA0FBB1F2A95E2F79D012095262324B9E7
:10057000019789F70895E82FF92F20E030E041E056
:1005800050E065B1DF01CA01008002C0880F991FE9
:100590000A94E2F78095862385B964B13296CA0140
:1005A0000C9002C0880F991F0A94E2F7862B84B939
:1005B0002F5F3F4F2330310521F708951F920F928F
:1005C0000FB60F9211242F933F934F935F936F9326
:1005D0007F938F939F93AF93BF93EF93FF9389EF95
:1005E00090E00197F1F700C0000091DE009741F024
:1005F0004ADF83ED90E30197F1F700C0000009C0E6
:1006000086DE009731F480918401909185016FDF3F
:100610002DDD81EE94E00197F1F700C00000FF911D
:10062000EF91BF91AF919F918F917F916F915F916A
:100630004F913F912F910F900FBE0F901F901895E3
:10064000F894009709F05C9AE3E2F4EF3197F1F740
:1006500000C00000009731F409C01E99FECF80E071
:1006600090E004C01E99F9CF80E090E05C98789407
:100670000895F8948130910509F05B9AE3E2F4EF74
:100680003197F1F700C000008130910531F409C0C5
:100690001E99FECF81E090E004C01E99F9CF81E061
:1006A00090E05B9878940895569A5E9A81E090E085
:1006B0000895569A5E9880E090E00895579A8130A8
:1006C000910511F45F9A08955F9808951F920F9213
:1006D0000FB60F9211242F933F934F935F936F9315
:1006E0007F938F939F93AF93BF93EF93FF938091EB
:1006F0000E0190910F0181309105B1F48091860136
:1007000090918701009781F032DD80E691E061E011
:1007100070E013DD82E090E0E7DC1092830110923C
:10072000820103DFA3DC01C0A1DCFF91EF91BF9147
:10073000AF919F918F917F916F915F914F913F9179
:100740002F910F900FBE0F901F901895EFE6F0E0DD
:10075000808182608083E1E8F0E080818560808331
:1007600080E090E190938900809388007FDC089579
:10077000CF93DF93CDB7DEB764970FB6F894DEBFA3
:100780000FBECDBFDE011196E0E0F1E088E0019000
:100790000D928150E1F7DE011996E8E0F1E086E084
:1007A00001900D928150E1F7CE0101968FDD789492
:1007B000CE010196CADECE010996DDDEE1DCB5DEB2
:1007C00080E090E07BDF07C082E090E06DDF9093F7
:1007D0000F0180930E0180910E0190910F018130E5
:1007E000910591F7B3DF0F2EFAE94F2EF1E05F2E5E
:1007F000F02D0F2EF6E8EF2EF1E0FF2EF02D0F2E4C
:10080000F2E18F2E9924F02D840C951CEB8AFC8A42
:10081000AEDC80E691E061E070E08FDC82E090E0A9
:1008200063DCC20109DD66247724498A5A8A0F2EC7
:10083000F0E62F2EF1E03F2EF02DB62CA72CBFC0F6
:10084000EF85F889EE0FFF1FEE0DFF1D808191816E
:100850000097B1F3D7018D919C9111978332910547
:1008600061F485DCC10161E070E067DC82E090E06A
:100870003BDC5BDE788A6F86A2C0F70180819181C4
:10088000803391059CF0808191818A33910574F4C5
:100890008F859889883091054CF48081918146DC60
:1008A0008F8598890196988B8F8789C0D7018D9104
:1008B0009C9111978A32910509F081C0F3DD57DCD4
:1008C00081E090E011DC8301C801880F991F8E0D33
:1008D0009F1DFC018081918129DC0F5F1F4F0A3031
:1008E000110591F782E090E0FFDB620109891A8926
:1008F000D8018D919D918D0119DC08151905C1F75D
:100900008FE39DE0A3E081509040A040E1F700C05C
:100910000000D7018D919C911197009709F44FC069
:1009200061E070E0A301F601CA01880F991F8E0DE6
:100930009F1DDC018D919C9111972191319182171E
:10094000930711F06B2D7A2D4F5F5F4FCA01880F0F
:10095000991F8E0D9F1DDC018D919C911197009721
:1009600019F7CA0161157105F1F4181619063CF55D
:10097000FEDB80E591E061E070E0DFDB8FE392E495
:10098000AFE081509040A040E1F700C00000CDDD15
:10099000788A6F86ECDBC10161E070E0CEDB82E03B
:1009A00090E0A2DB0CC0141615064CF480910E01E9
:1009B00090910F017EDE90930F0180930E01809144
:1009C0000E0190910F018130910509F439CF98C043
:1009D000CEDB80E491E061E070E0AFDB80E391E0AA
:1009E00062E070E0AADBA1DD188A1F868F859889F6
:1009F000880F991F8E0D9F1DDC018D919C91119781
:100A00000097A1F3F7018081918183329105A1F4D0
:100A100080910E0190910F0147DE90930F0180931A
:100A20000E0183DD188A1F86C50161E070E085DB59
:100A300082E090E059DB72C0808191818A32910519
:100A400009F06CC094DB71DD188A1F86C80161E073
:100A500070E073DB82E090E047DB49C08F859889C6
:100A6000880F991F8E0D9F1DFC0180819181009739
:100A7000A9F3D7018D919C91119780339105A4F032
:100A80008D919C9111978A33910574F48F85988983
:100A9000893091054CF48D919C9148DB8F85988924
:100AA0000196988B8F8723C0F701808191818A32CC
:100AB000910529F4F7DC8B899C8999DB2FC0808113
:100AC00091818332910599F452DBC60161E070E0B7
:100AD00034DB8FE392E4AFE081509040A040E1F737
:100AE00000C0000022DD188A1F8641DB17C0D70135
:100AF0008D919C9111978A32910509F0AFCF0EC06C
:100B000000E211E00F2EF0E1CF2EF1E0DF2EF02D0C
:100B10000F2EF0E6AF2EF1E0BF2EF02D80910E01EA
:100B200090910F01009709F073CE52CFF999FECF43
:100B300012BC81BDF89A992780B50895262FF9999E
:100B4000FECF1FBA12BC81BD20BD0FB6F894FA9A31
:0C0B5000F99A0FBE01960895F894FFCFAB
:100B5C000000010002000700030004000500020071
:100B6C0020202D2D43414E43454C45442D2D202016
:100B7C00534554204E455720434F444520202020B8
:100B8C002A202D20534554204E455720434F444591
:100B9C0023202D20544F204C4F434B20202020202D
:100BAC00494E434F525245435420434F4445202015
:100BBC00454E54455220434F4445202020202020B0
:100BCC003000300030003000000000000000000059
:020BDC00000017
:00000001FF
