:1000000019C033C032C0FAC230C02FC02EC02DC0BC
:100010002CC02BC02AC029C028C027C026C025C09C
:1000200024C023C022C021C020C01FC01EC01DC0CC
:100030001CC01BC011241FBECFEFD2E0DEBFCDBF5E
:1000400011E0A0E0B1E0E4E0FBE002C005900D9219
:10005000A038B107D9F711E0A0E8B1E001C01D92C6
:10006000A639B107E1F705D34BC5CACF449A89EF4A
:1000700090E00197F1F700C00000449808950F93B5
:100080001F93CF93DF938C01007F10701595079518
:10009000159507951595079515950795EC01CF7062
:1000A000D07088B1807F88B988B1802B88B9DEDFB5
:1000B00088B10095082308B988B18C2B88B9D6DFA0
:1000C00089EF90E00197F1F700C0000088B1C0957A
:1000D000C823C8B9DF91CF911F910F910895CF9395
:1000E000DF93EC018FE387B94598509A58988CE0DC
:1000F00090E0C5DFC230D10559F482E090E0BFDF67
:10010000C8E2D0E084E190E0BADF2197D9F703C0DC
:1001100082E090E0B4DF8FE090E0B1DFDF91CF913B
:1001200008952FE327B9459A509A5898A8DF089563
:100130000F931F93CF93DF93C82FD92FCB01CFDF1E
:100140000C2F1D2FC0E0D0E0F80181918F0190E0CD
:10015000E8DF2196C031D105B9F7DF91CF911F912A
:100160000F9108958FE387B94598509A589881E088
:1001700090E085DF0895CF93DF938FE387B988B14F
:10018000807C88B9509A5898C4E0D0E088B18360E8
:1001900088B96CDF89EF90E00197F1F700C00000AB
:1001A00088B18C7F88B9219789F7419A5FDF89EF01
:1001B00090E00197F1F700C00000419888E290E0DC
:1001C0005EDF8FE090E05BDF86E090E058DFDF915C
:1001D000CF910895519A8130910511F4599808955D
:1001E000599A08950F931F93CF93FC0160817181F9
:1001F0006115710581F08C010E5F1F4FC1E08C2FDE
:1002000090E070D4CF5FF801619171918F01611519
:100210007105A9F701C0C1E08C2F90E063D480E0A4
:1002200090E060E05FD4CF911F910F910895EF921D
:10023000FF920F931F93CF93DF937C0180E090E0B8
:1002400049D4882321F48701C0E0D0E00EC080911A
:100250006E0190916F010097B1F420E030E023C06F
:10026000F801819391938F0121968C2F8F5F90E0FD
:1002700031D490E00097A1F7CC0FDD1FCE0DDF1D2C
:100280001982188217C0D701E0E7F1E020E030E0E2
:100290008D939D932F5F3F4F508141813296852FE3
:1002A000942F0097A9F7220F331FE20EF31EF701D8
:1002B00091838083DF91CF911F910F91FF90EF90F9
:1002C000089581E28A95F1F70000189B0FC0199BF1
:1002D00010C01A9B11C083B1992787FD9095809516
:1002E00090958827990F881F9927089581E090E0BD
:1002F000089581E090E0089581E090E00895189BD2
:1003000007C0199B08C01A9B09C01F9B0AC008950B
:1003100080E090E0089581E090E0089582E090E030
:10032000089587E090E008952B9A61E26A95F1F7CD
:10033000000093B12B982C9A71E27A95F1F70000A6
:1003400023B130E0082E02C0359527950A94E2F7D4
:1003500020FD03C021E030E002C022E030E02C9814
:100360002D9A91E29A95F1F7000043B150E0BA015D
:1003700002C0759567958A95E2F760FF02C023E099
:1003800030E02D98822F932F0895009751F461301B
:10039000710581F16230710581F163307105E9F415
:1003A0002FC08130910551F46130710561F16230E7
:1003B000710561F163307105E9F52BC0823091055B
:1003C00061F46130710541F16230710541F16330D2
:1003D000710581F529E330E02DC08730910551F595
:1003E00061307105F9F062307105F9F06330710523
:1003F00009F51EC021E330E01DC022E330E01AC041
:1004000023E330E017C024E330E014C025E330E0FC
:1004100011C026E330E00EC027E330E00BC028E334
:1004200030E008C02AE230E005C020E330E002C03E
:1004300023E230E0822F932F0895CF93DF935FDF85
:10044000EC0172DFBC01CE01A0DF909381018093AB
:100450008001DF91CF910895A0918201B091830135
:1004600080E090E062E871E001C0C9019C012F5F6B
:100470003F4FF901EE0FFF1FE60FF71F408151813B
:10048000FC01EE0FFF1FE60FF71F51834083293059
:10049000310559F710929501109294018A2F9B2FE4
:1004A0000895DC0189E090E062E871E09C01215050
:1004B0003040F901EE0FFF1FE60FF71F4081518119
:1004C000FC01EE0FFF1FE60FF71F51834083C901A8
:1004D000009761F7B0938301A0938201089580E0B3
:1004E00090E022E831E0FC01EE0FFF1FE20FF31F66
:1004F0001182108201968A309105A9F70895E82F9C
:10050000F92F84E090E041E050E064B12081329620
:10051000DA0102C0AA0FBB1F2A95E2F79D012095C0
:10052000262324B9019789F70895E82FF92F20E0B1
:1005300030E041E050E065B1DF01CA01008002C057
:10054000880F991F0A94E2F78095862385B964B1D4
:100550003296CA010C9002C0880F991F0A94E2F7E4
:10056000862B84B92F5F3F4F2330310521F7089543
:10057000F894009709F05C9AE3E2F4EF3197F1F711
:1005800000C00000009731F409C01E99FECF80E042
:1005900090E004C01E99F9CF80E090E05C987894D8
:1005A0000895F8948130910509F05B9AE3E2F4EF45
:1005B0003197F1F700C000008130910531F409C096
:1005C0001E99FECF81E090E004C01E99F9CF81E032
:1005D00090E05B9878940895569A5E9A81E090E056
:1005E0000895569A5E9880E090E00895579A813079
:1005F000910511F45F9A08955F9808951F920F92E4
:100600000FB60F9211242F933F934F935F936F93E5
:100610007F938F939F93AF93BF93EF93FF9381EE5D
:1006200094E00197F1F700C000004BDE009741F025
:1006300004DF83ED90E30197F1F700C0000008C0EC
:1006400040DE009729F4809180019091810129DF9B
:10065000FF91EF91BF91AF919F918F917F916F919A
:100660005F914F913F912F910F900FBE0F901F9070
:100670001895CF93DF93CDB7DEB7C658D0400FB6ED
:10068000F894DEBF0FBECDBFDE011196E0E0F1E0D1
:1006900088E001900D928150E1F7DE011996E8E0C3
:1006A000F1E086E001900D928150E1F7E8E6F0E09C
:1006B000808181608083FE0131969E01275F3F4FDC
:1006C000ABE6B0E041E050E06C91808132968A0167
:1006D00002C0000F111F8A95E2F7C801862B8C9388
:1006E000E217F30789F77894DE015196EEE0F1E026
:1006F00080E101900D928150E1F7DE019196EEE1EB
:10070000F1E080E101900D928150E1F7DE01D19698
:10071000EEE2F1E080E101900D928150E1F7DE011F
:10072000AF5BBF4FEEE3F1E080E101900D928150AD
:10073000E1F7DE01AF5ABF4FEEE4F1E080E1019056
:100740000D928150E1F7DE01AF59BF4FEEE5F1E0C8
:1007500080E101900D928150E1F7CE010196CFDE4C
:10076000CE010996E2DE07DDBADE188A1F8680E038
:1007700090E03CDF82E090E02FDF5C01813091056A
:10078000C9F70F2EF1E72F2E3324F02D2C0E3D1E2E
:100790000F2EF2E8EF2EF1E0FF2EF02D0F2EF2E1FA
:1007A0006F2E7724F02D620C731CCB57DF4FE8823D
:1007B000C558D040CA57DF4FF882C658D040D2DC67
:1007C000CE01419661E070E0B3DC82E090E087DC2E
:1007D000C1012DDD81E0A816B10409F0D4C0442484
:1007E0005524CD57DF4F2882C358D040CC57DF4F18
:1007F0003882C458D040942C852C8F859889880FD6
:10080000991F8E0D9F1DDC018D919C911197009772
:10081000A1F3F701808191818332910569F4A2DC13
:10082000CE01419661E070E083DC82E090E057DC2D
:1008300056DE588A4F86A2C080819181803391050F
:100840009CF0808191818A33910574F48F85988919
:10085000883091054CF48081918163DC8F85988983
:100860000196988B8F878AC0F701808191818A32A7
:10087000910509F083C0F0DD75DC81E090E02FDCAC
:100880008201C801880F991F8E0D9F1DDC018D917B
:100890009C9147DC0F5F1F4F0A30110591F782E0F2
:1008A00090E01DDC6101CD57DF4F0881C358D04077
:1008B000CC57DF4F1881C458D040F80181919191F5
:1008C0008F012FDC06151705C1F78FE39DE0A3E02C
:1008D00081509040A040E1F700C00000D7018D9109
:1008E0009C911197009709F449C061E070E0A20162
:1008F000CA01880F991F8E0D9F1DFC018081918177
:10090000D6012D913D916D018217930711F0692D4C
:10091000782D4F5F5F4FCA01880F991F8E0D9F1D65
:10092000FC0180819181009719F7CA016115710559
:10093000F9F41816190614F515DCCE01819661E05C
:1009400070E0F6DB8FE392E4AFE081509040A0408E
:10095000E1F700C00000C3DD588A4F8603DCCE01FA
:10096000419661E070E0E4DB82E090E0B8DB06C035
:10097000141615061CF4C50134DE5C0191E0A916BD
:10098000B10409F43ACFA114B10409F018CFEADB9D
:10099000CE01C19661E070E0CBDBCE018F5B9F4F53
:1009A00062E070E0C5DB9BDD188A1F86EF85F88961
:1009B000EE0FFF1FEE0DFF1D808191810097B1F3B7
:1009C000D7018D919C9111978332910579F4C501DE
:1009D00003DE5C0184DD188A1F86CE01419661E04A
:1009E00070E0A6DB82E090E07ADB6FC0F7018081E7
:1009F00091818A32910509F068C0B4DB70DD188AF4
:100A00001F86CE018F5A9F4F61E070E091DB82E03C
:100A100090E065DB52C0EF85F889EE0FFF1FEE0D09
:100A2000FF1D808191810097B1F3D7018D919C9139
:100A3000119780339105A4F08D919C9111978A3381
:100A4000910574F48F859889893091054CF48D91C6
:100A50009C9167DB8F8598890196988B8F872DC035
:100A6000F701808191818A32910569F4F5DCCB57D9
:100A7000DF4F8881C558D040CA57DF4F9881C6588C
:100A8000D040B0DB22C08081918183329105A9F4EE
:100A900069DBCE018F599F4F61E070E049DB8FE346
:100AA00092E4AFE081509040A040E1F700C0000028
:100AB00016DD188A1F8656DB08C0D7018D919C91E0
:100AC00011978A32910509F0A6CFA114B10409F05B
:100AD00076CE5DCFF999FECF12BC81BDF89A9927E9
:100AE00080B50895262FF999FECF1FBA12BC81BD9B
:100AF00020BD0FB6F894FA9AF99A0FBE01960895A0
:040B0000F894FFCF97
:100B04000000010002000700030004000500454E38
:100B140054455220434F4445202020202020494E54
:100B2400434F525245435420434F444520202320F1
:100B34002D20544F204C4F434B20202020202A208E
:100B44002D20534554204E455720434F444553458B
:100B540054204E455720434F444520202020202038
:100B64002D2D43414E43454C45442D2D202030002E
:100B740030003000300000000000000000000000E1
:00000001FF
