:100000000C9434000C9451000C9451000C94510049
:100010000C9451000C9451000C9451000C9451001C
:100020000C9451000C9451000C9451000C9451000C
:100030000C9451000C9451000C9451000C945100FC
:100040000C9451000C9451000C9451000C945100EC
:100050000C9451000C9451000C9451000C945100DC
:100060000C9451000C94510011241FBECFEFD8E026
:10007000DEBFCDBF11E0A0E0B1E0ECE6F3E002C0EE
:1000800005900D92A032B107D9F711E0A0E2B1E0DE
:1000900001C01D92A635B107E1F70E9481010C94C1
:1000A000B4010C940000E0E0F1E080E090E043B1A6
:1000B0002081329650E0DA0102C0B595A7952A95C5
:1000C000E2F7A0FFBC0101968430910581F7772308
:1000D0004CF06330710544F06330710519F467E04A
:1000E00070E002C067E070E0862F972F08952B9A8A
:1000F00041E24A95F1F7000093B12B982C9A91E2D6
:100100009A95F1F7000093B141E050E09A0102C0E6
:10011000220F331F8A95E2F7892F90E082239323E1
:100120008130910519F081E090E002C082E090E01A
:100130002C982D9A41E24A95F1F7000043B150E026
:10014000242335232130310511F483E090E02D98EC
:10015000089501968230910519F1833091052CF4B0
:100160008130910509F052C008C08330910551F1EA
:100170008430910509F04AC037C06230710509F436
:1001800048C06330710531F06130710531F481E0B0
:1001900090E0089583E090E008958BE090E008956A
:1001A00062307105C9F16330710531F0613071055C
:1001B00031F484E090E0089586E090E008958BE0CB
:1001C00090E008956230710551F16330710531F0AE
:1001D0006130710531F487E090E0089589E090E0A6
:1001E00008958BE090E0089562307105D9F0633096
:1001F000710531F06130710531F48AE090E00895C5
:100200008BE090E008958BE090E008958BE090E023
:10021000089582E090E0089585E090E0089588E0F8
:1002200090E0089580E090E0089546E251E08091EA
:10023000260190912701FA01425F5F4F22813381AD
:1002400021933193E417F507C9F70895AC01E4E36E
:10025000F1E0CF010E973291229133832283E81788
:10026000F907C9F750932701409326010895CF93CA
:10027000DF938091220190912301009791F481E016
:1002800090E090932301809322010E945300EC019F
:100290000E947700BC01CE010E94A9000E942601A5
:1002A00004C01092230110922201DF91CF91089592
:1002B0001092210110922001109237011092360104
:1002C000109239011092380110923B0110923A01BC
:1002D00010923D0110923C0110923F0110923E019C
:1002E000109241011092400110924301109242017C
:1002F000109245011092440110924701109246015C
:10030000089584B18FEF84B9E8E0F1E09F012A5F9E
:100310003F4F41E050E065B180813296DA0102C082
:10032000AA0FBB1F8A95E2F7CD018095862385B978
:10033000E217F30781F7E0E0F1E09F01285F3F4F0C
:1003400041E050E065B180813296DA0102C0AA0F27
:10035000BB1F8A95E2F7CD01862B85B9E217F3071B
:0C03600089F70E943701FFCFF894FFCF0F
:10036C00000001000200070003000400050001006A
:10037C000200030004000000000000000000010067
:00000001FF
