:1000000019C033C032C031C030C02FC02EC02DC087
:100010002CC02BC02AC029C028C027C026C025C09C
:1000200024C023C022C021C020C01FC01EC01DC0CC
:100030001CC01BC011241FBECFEFD2E0DEBFCDBF5E
:1000400011E0A0E0B1E0E0EBF2E002C005900D921B
:10005000A033B107D9F711E0A0E3B1E001C01D92D0
:10006000A033B107E1F7BED021C1CACF449A89EFCE
:1000700090E00197F1F700C00000449808950F93B5
:100080001F93CF93DF938C01007F10701595079518
:10009000159507951595079515950795EC01CF7062
:1000A000D07088B1807F88B988B1802B88B9DEDFB5
:1000B00088B10095082308B988B18C2B88B9D6DFA0
:1000C00089EF90E00197F1F700C0000088B1C0957A
:1000D000C823C8B9DF91CF911F910F910895CF9395
:1000E000DF93EC018FE387B94598209A28988CE03C
:1000F00090E0C5DFC230D10559F482E090E0BFDF67
:10010000C8E2D0E084E190E0BADF2197D9F703C0DC
:1001100082E090E0B4DF8FE090E0B1DFDF91CF913B
:1001200008952FE327B9459A209A2898A8DF0895C3
:100130000F931F93CF93DF93C82FD92FCB01CFDF1E
:100140000C2F1D2FC0E0D0E0F80181918F0190E0CD
:10015000E8DF2196C031D105B9F7DF91CF911F912A
:100160000F9108958FE387B94598209A289881E0E8
:1001700090E085DF0895CF93DF938FE387B988B14F
:10018000807C88B9209A2898C4E0D0E088B1836048
:1001900088B96CDF89EF90E00197F1F700C00000AB
:1001A00088B18C7F88B9219789F7419A5FDF89EF01
:1001B00090E00197F1F700C00000419888E290E0DC
:1001C0005EDF8FE090E05BDF86E090E058DFDF915C
:1001D000CF910895219A8130910511F429980895BD
:1001E000299A08950F931F93CF93DF93CDB7DEB76E
:1001F000E0970FB6F894DEBF0FBECDBFDE011196BB
:10020000E0E0F1E080E101900D928150E1F7DE0144
:100210005196E0E1F1E080E101900D928150E1F72B
:10022000DE019196E0E2F1E080E101900D928150D3
:10023000E1F7A1DF97DF81E090E0CCDFCE0101960E
:1002400061E070E075DFCE01419662E070E070DF42
:1002500089DFCE01819661E070E06ADF82E090E0A4
:100260003EDF00E310E0C8015CDF0F5F1F4F0A3381
:100270001105C9F777DFCE01019661E070E058DF24
:10028000CE01419662E070E053DF6CDF80E090E0E9
:10029000A1DF80E090E0E0960FB6F894DEBF0FBEDD
:1002A000CDBFDF91CF911F910F910895F894FFCFAB
:1002B000434F4441204B414D41202020202020200D
:1002C000524F434B53212121202020202020202049
:1002D000454E54455220434F4445202020202020A5
:00000001FF
