:1000000019C033C032C031C030C02FC02EC02DC087
:100010002CC02BC02AC029C028C027C026C025C09C
:1000200024C023C022C021C020C01FC01EC01DC0CC
:100030001CC01BC011241FBECFEFD2E0DEBFCDBF5E
:1000400011E0A0E0B1E0EEE7F3E002C005900D9210
:10005000AA33B107D9F711E0AAE3B1E001C01D92BC
:10006000AA33B107E1F7BED088C1CACF449A89EF5D
:1000700090E00197F1F700C00000449808950F93B5
:100080001F93CF93DF938C01007F10701595079518
:10009000159507951595079515950795EC01CF7062
:1000A000D07088B1807F88B988B1802B88B9DEDFB5
:1000B00088B10095082308B988B18C2B88B9D6DFA0
:1000C00089EF90E00197F1F700C0000088B1C0957A
:1000D000C823C8B9DF91CF911F910F910895CF9395
:1000E000DF93EC018FE387B94598209A28988CE03C
:1000F00090E0C5DFC230D10559F482E090E0BFDF67
:10010000C8E2D0E084E190E0BADF2197D9F703C0DC
:1001100082E090E0B4DF8FE090E0B1DFDF91CF913B
:1001200008952FE327B9459A209A2898A8DF0895C3
:100130000F931F93CF93DF93C82FD92FCB01CFDF1E
:100140000C2F1D2FC0E0D0E0F80181918F0190E0CD
:10015000E8DF2196C031D105B9F7DF91CF911F912A
:100160000F9108958FE387B94598209A289881E0E8
:1001700090E085DF0895CF93DF938FE387B988B14F
:10018000807C88B9209A2898C4E0D0E088B1836048
:1001900088B96CDF89EF90E00197F1F700C00000AB
:1001A00088B18C7F88B9219789F7419A5FDF89EF01
:1001B00090E00197F1F700C00000419888E290E0DC
:1001C0005EDF8FE090E05BDF86E090E058DFDF915C
:1001D000CF910895219A8130910511F429980895BD
:1001E000299A0895EF92FF920F931F93CF93DF9375
:1001F000CDB7DEB7EA970FB6F894DEBF0FBECDBF1E
:10020000DE011196E0E0F1E080E101900D92815075
:10021000E1F7DE015196E0E1F1E080E101900D921D
:100220008150E1F7DE019196E0E2F1E080E101909A
:100230000D928150E1F7DE01D196E0E3F1E08AE032
:1002400001900D928150E1F796DF8CDF81E090E024
:10025000C1DF8FE996E8A1E081509040A040E1F72E
:1002600000C00000CE01019661E070E061DF8FE91F
:1002700096E8A1E081509040A040E1F700C0000066
:10028000CE01419662E070E053DF8FE392E4AFE08D
:1002900081509040A040E1F700C0000063DFCE0134
:1002A000819661E070E044DF82E090E018DF8FE348
:1002B0009DE0A3E081509040A040E1F700C0000025
:1002C0008E010F5C1F4F0F2EFBE3EF2EFF24F02D4E
:1002D000EC0EFD1ED8018D918D0190E022DF8FE3A1
:1002E0009DE0A3E081509040A040E1F700C00000F5
:1002F0000E151F0579F78FE392E4AFE0815090402F
:10030000A040E1F700C000002DDF8FE996E8A1E0F2
:1003100081509040A040E1F700C00000CE0101965E
:1003200061E070E005DF8FE996E8A1E08150904040
:10033000A040E1F700C00000CE01419662E070E00D
:10034000F7DE8FE39DE0A3E081509040A040E1F70D
:1003500000C0000007DF80E090E03CDF80E090E03C
:10036000EA960FB6F894DEBF0FBECDBFDF91CF91F6
:0E0370001F910F91FF90EF900895F894FFCF2A
:10037E00434F4441204B414D41202020202020203E
:10038E00524F434B5321212120202020202020207A
:10039E00454E54455220434F4445202020202020D6
:0A03AE003031323334353637383938
:00000001FF
