:1000000019C033C032C0DEC130C02FC02EC02DC0D9
:100010002CC02BC02AC029C028C027C026C025C09C
:1000200024C023C022C021C020C01FC01EC01DC0CC
:100030001CC01BC011241FBECFEFD2E0DEBFCDBF5E
:1000400011E0A0E0B1E0E6EBF5E002C005900D9212
:10005000A03DB107D9F711E0A0EDB1E001C01D92BC
:10006000A43EB107E1F727D2A4C2CACF81E28A95A4
:10007000F1F70000189B0FC0199B10C01A9B11C00C
:1000800083B1992787FD9095809590958827990F42
:10009000881F9927089581E090E0089581E090E01D
:1000A000089581E090E00895189B07C0199B08C04F
:1000B0001A9B09C01F9B0AC0089580E090E0089534
:1000C00081E090E0089582E090E0089587E090E07C
:1000D00008952B9A6AE06A95F1F793B12B982C9AC0
:1000E0007AE07A95F1F723B130E0082E02C0359519
:1000F00027950A94E2F720FD03C021E030E002C01A
:1001000022E030E02C982D9A9AE09A95F1F743B1CD
:1001100050E0BA0102C0759567958A95E2F760FFD5
:1001200002C023E030E02D98822F932F089500978E
:1001300051F46130710581F16230710581F16330F4
:100140007105E9F42FC08130910551F461307105DA
:1001500061F16230710561F163307105E9F52BC021
:100160008230910561F46130710541F162307105B1
:1001700041F16330710581F529E330E02DC087300E
:10018000910551F561307105F9F062307105F9F0B2
:100190006330710509F51EC021E330E01DC022E384
:1001A00030E01AC023E330E017C024E330E014C08D
:1001B00025E330E011C026E330E00EC027E330E055
:1001C0000BC028E330E008C02AE230E005C020E39D
:1001D00030E002C023E230E0822F932F0895CF93C6
:1001E000DF9362DFEC0175DFBC01CE01A0DF9093ED
:1001F000D1018093D001DF91CF91089542ED51E07C
:100200008091D2019091D301FA01405F5F4F22812A
:10021000338121933193E417F507C9F71092E30175
:100220001092E2010895AC01E2EEF1E0CF014097B7
:100230003291229133832283E817F907C9F750934B
:10024000D3014093D2010895E2EDF1E0CF0142964F
:1002500011921192E817F907D9F70895449A89EF96
:1002600090E00197F1F700C00000449808950F93C3
:100270001F93CF93DF938C01007F10701595079526
:10028000159507951595079515950795EC01CF7070
:10029000D07088B1807F88B988B1802B88B9DEDFC3
:1002A00088B10095082308B988B18C2B88B9D6DFAE
:1002B00089EF90E00197F1F700C0000088B1C09588
:1002C000C823C8B9DF91CF911F910F910895CF93A3
:1002D000DF93EC018FE387B94598509A58988CE0EA
:1002E00090E0C5DFC230D10559F482E090E0BFDF75
:1002F000C8E2D0E084E190E0BADF2197D9F703C0EB
:1003000082E090E0B4DF8FE090E0B1DFDF91CF9149
:1003100008952FE327B9459A509A5898A8DF089571
:100320000F931F93CF93DF93C82FD92FCB01CFDF2C
:100330000C2F1D2FC0E0D0E0F80181918F0190E0DB
:10034000E8DF2196C031D105B9F7DF91CF911F9138
:100350000F9108958FE387B94598509A589881E096
:1003600090E085DF0895CF93DF938FE387B988B15D
:10037000807C88B9509A5898C4E0D0E088B18360F6
:1003800088B96CDF89EF90E00197F1F700C00000B9
:1003900088B18C7F88B9219789F7419A5FDF89EF0F
:1003A00090E00197F1F700C00000419888E290E0EA
:1003B0005EDF8FE090E05BDF86E090E058DFDF916A
:1003C000CF9108951F920F920FB60F9211242F9381
:1003D0003F934F935F936F937F938F939F93AF93CD
:1003E000BF93EF93FF9381EE94E00197F1F700C084
:1003F00000003CDE009741F0F2DE83ED90E30197D0
:10040000F1F700C000000DC031DE009751F480917B
:10041000D0019091D10107DF8091D2019091D30159
:1004200078DFFF91EF91BF91AF919F918F917F9175
:100430006F915F914F913F912F910F900FBE0F9051
:100440001F901895E82FF92F84E090E041E050E0EC
:1004500064B120813296DA0102C0AA0FBB1F2A952F
:10046000E2F79D012095262324B9019789F7089585
:10047000E82FF92F20E030E041E050E065B1DF01E6
:10048000CA01008002C0880F991F0A94E2F7809584
:10049000862385B964B13296CA010C9002C0880FD8
:1004A000991F0A94E2F7862B84B92F5F3F4F2330C0
:1004B000310521F70895CF93DF93CDB7DEB72E979F
:1004C0000FB6F894DEBF0FBECDBFDE011196E0E09F
:1004D000F1E088E001900D928150E1F7DE0119967C
:1004E000E8E0F1E086E001900D928150E1F7CE0165
:1004F0000196A8DF8E01075F1F4FC801B9DF33DF08
:10050000A3DE28DF8EEA91E061E070E009DF82E09F
:1005100090E0DDDE83E290E0FCDEE8E6F0E0808162
:1005200081608083FE013196ABE6B0E021E030E0EF
:100530004C9180813296B90102C0660F771F8A956F
:10054000E2F7CB01842B8C93E017F10789F77894BD
:100550000F2EF2EDEF2EF1E0FF2EF02D0F2EF4ED29
:10056000CF2EF1E0DF2EF02D0F2EFFE3AF2EBB24B8
:10057000F02D0F2EF6ED8F2EF1E09F2EF02D00C006
:1005800000C00000F7018081918183329105B9F7A5
:10059000F60180819181009741F08401BADEF80173
:1005A000819191918F010097C9F7F701B182A082E3
:0605B000E6CFF894FFCF36
:1005B60000000100020007000300040005002000FF
:1005C60020002D002D00430041004E004300450051
:1005D6004C00450044002D002D0020002000530053
:1005E6004500540020004E004500570020004300FF
:1005F6004F004400450020002000200020002A0073
:1006060020002D00200053004500540020004E001D
:1006160045005700200043004F00440045002300DA
:1006260020002D00200054004F0020004C004F00F9
:1006360043004B002000200020002000200049003D
:100646004E0043004F005200520045004300540044
:10065600200043004F0044004500200020004500D4
:100666004E00540045005200200043004F00440055
:10067600450020002000200020002000200001006E
:00000001FF
