:1000000025C03FC03EC074C23CC03BC03AC039C0EE
:1000100038C037C036C035C034C033C032C031C03C
:1000200030C02FC02EC02DC02CC02BC02AC029C06C
:1000300028C027C08CC1A3C1ADC1B7C1C1C1CBC14C
:10004000D5C1DFC1E9C1F3C1FDC107C211241FBE83
:10005000CFEFD2E0DEBFCDBF11E0A0E0B1E0E2ED36
:10006000F5E002C005900D92A832B107D9F711E072
:10007000A8E2B1E001C01D92AE35B107E1F785D22B
:10008000A6C2BECF189B07C0199B08C01A9B09C007
:100090001F9B0AC0089580E090E0089581E090E001
:1000A000089582E090E0089587E090E008952B9A0B
:1000B00061E26A95F1F7000093B12B9871E27A95AD
:1000C000F1F700002C9A91E29A95F1F7000023B124
:1000D00030E0082E02C0359527950A94E2F720FDFE
:1000E00003C021E030E002C022E030E02C9861E261
:1000F0006A95F1F700002D9A71E27A95F1F7000008
:1001000043B150E0BA0102C0759567958A95E2F750
:1001100060FF02C023E030E02D9871E27A95F1F79C
:100120000000822F932F0895009751F461307105DC
:1001300081F16230710581F163307105E9F42FC0FE
:100140008130910551F46130710561F162307105C2
:1001500061F163307105E9F52BC08230910561F4DE
:100160006130710541F16230710541F16330710513
:1001700081F529E030E02DC08730910551F56130DF
:100180007105F9F062307105F9F06330710509F518
:100190001EC021E030E01DC022E030E01AC023E0A4
:1001A00030E017C024E030E014C025E030E011C09A
:1001B00026E030E00EC027E030E00BC028E030E061
:1001C00008C02AE030E005C02BE030E002C02CE09F
:1001D00030E0822F932F08954EE251E080912E015E
:1001E00090912F01FA01425F5F4F22813381219369
:1001F0003193E417F507C9F70895AC01ECE3F1E09A
:10020000CF010E973291229133832283E817F907A9
:10021000C9F750932F0140932E010895CF93DF9398
:1002200080912A0190912B01009771F481E090E078
:1002300090932B0180932A0125DFEC0138DFBC016C
:10024000CE0172DFDADF04C010922B0110922A0176
:10025000DF91CF91089510922901109228011092F8
:100260003F0110923E011092410110924001109204
:1002700043011092420110924501109244011092E4
:1002800047011092460110924901109248011092C4
:100290004B0110924A0110924D0110924C011092A4
:1002A0004F0110924E010895E8E0F1E09F01285FB0
:1002B0003F4F41E050E064B180813296DA0102C0E4
:1002C000AA0FBB1F8A95E2F7CD018095862384B9DA
:1002D000E217F30781F70895E0E1F1E0AF014A5F2B
:1002E0005F4F21E030E065B1DF01C901008002C04D
:1002F000880F991F0A94E2F78095862385B964B127
:100300003296C9010C9002C0880F991F0A94E2F737
:10031000862B84B9E417F50731F70895EF92FF9221
:100320001F93CF93DF93CDB7DEB728970FB6F8941E
:10033000DEBF0FBECDBFE0912E01F0912F013197AE
:10034000EC30F10508F094C0E65EFF4F09941A8284
:1003500019821C821B821E821D8281E090E0988798
:100360008F83FE0131960F2EF0E0EF2EF1E0FF2E8D
:10037000F02DAE01475F5F4F61E070E082C01A82EE
:1003800019821C821B8281E090E09E838D831886F7
:100390001F82E7CF1A8219821C821B8281E090E0C3
:1003A0009E838D8398878F83DCCF1A82198281E0A8
:1003B00090E09C838B831E821D8218861F82D1CF82
:1003C0001A82198281E090E09C838B831E821D82B9
:1003D00098878F83C6CF1A82198281E090E09C8330
:1003E0008B839E838D8318861F82BBCF1A821982CE
:1003F00081E090E09C838B839E838D8398878F839D
:10040000B0CF81E090E09A8389831C821B821E8298
:100410001D8218861F82A5CF81E090E09A83898390
:100420001C821B821E821D8298878F839ACF81E057
:1004300090E09A8389831C821B829E838D83188619
:100440001F828FCF81E090E09A8389831C821B8278
:100450009E838D8398878F8384CF81E090E09A83F9
:1004600089839C838B831E821D8218861F8279CF8D
:100470001A8219821C821B821E821D8218861F828C
:1004800070CF9F0180819181009759F41BB1CB01FE
:10049000D7010C9002C0880F991F0A94E2F7812BB4
:1004A0008BB93296D9018D919C911197813091052C
:1004B00061F42BB1CB01D7010C9002C0880F991FBA
:1004C0000A94E2F7809582238BB982E090E0E80EEF
:1004D000F91EE417F507A9F628960FB6F894DEBFC3
:1004E0000FBECDBFDF91CF911F91FF90EF90089588
:1004F0001F920F920FB60F9211242F933F934F9399
:100500005F936F937F938F939F93AF93BF93EF937B
:10051000FF93F89483DE80912A0190912B0100973C
:1005200009F4FCDE7894FF91EF91BF91AF919F9118
:100530008F917F916F915F914F913F912F910F908C
:100540000FBE0F901F901895E0E0F1E0AF01485FFB
:100550005F4F21E030E06BB1DF01C901008002C0D4
:10056000880F991F0A94E2F7862B8BB96AB13296ED
:10057000C9010C9002C0880F991F0A94E2F7862BDC
:100580008AB9E417F50739F70895A6DE8DDEDCDFBA
:10059000E8E6F0E0808181608083E8E0F1E09F019F
:1005A000285F3F4FABE6B0E041E050E06C918081C6
:1005B0003296EA0102C0CC0FDD1F8A95E2F7CE0128
:1005C000862B8C93E217F30789F77894FFCFF89482
:0205D000FFCF5B
:1005D2000000010002000300000001000200070009
:1005E20003000400050001000200030004000000F3
:0805F200000000000000010000
:00000001FF
