:1000000025C03FC03EC052C23CC03BC03AC039C010
:1000100038C037C036C035C034C033C032C031C03C
:1000200030C02FC02EC02DC02CC02BC02AC029C06C
:1000300028C027C06AC181C18BC195C19FC1A9C118
:10004000B3C1BDC1C7C1D1C1DBC1E5C111241FBE50
:10005000CFEFD2E0DEBFCDBF11E0A0E0B1E0EEED2A
:10006000F5E002C005900D92A831B107D9F711E073
:10007000A8E1B1E001C01D92AA32B107E1F769D24F
:10008000ACC2BECF81E28A95F1F70000189B0FC089
:10009000199B10C01A9B11C083B1992787FD9095B9
:1000A000809590958827990F881F9927089581E05A
:1000B00090E0089581E090E0089581E090E0089557
:1000C000189B07C0199B08C01A9B09C01F9B0AC038
:1000D000089580E090E0089581E090E0089582E046
:1000E00090E0089587E090E008952B9A6AE06A9581
:1000F000F1F793B12B982C9A7AE07A95F1F723B126
:1001000030E0082E02C0359527950A94E2F720FDCD
:1001100003C021E030E002C022E030E02C982D9AAC
:100120009AE09A95F1F743B150E0BA0102C0759593
:1001300067958A95E2F760FF02C023E030E02D98D2
:10014000822F932F0895009751F46130710581F14A
:100150006230710581F163307105E9F42FC081309F
:10016000910551F46130710561F16230710561F101
:1001700063307105E9F52BC08230910561F461307F
:10018000710541F16230710541F16330710581F50E
:1001900029E030E02DC08730910551F561307105BF
:1001A000F9F062307105F9F06330710509F51EC090
:1001B00021E030E01DC022E030E01AC023E030E052
:1001C00017C024E030E014C025E030E011C026E084
:1001D00030E00EC027E030E00BC028E030E008C07F
:1001E0002AE030E005C02BE030E002C02CE030E037
:1001F000822F932F089548E151E08091180190914A
:100200001901FA01405F5F4F2281338121933193BD
:10021000E417F507C9F70895AC01E8E2F1E0CF0172
:1002200040973291229133832283E817F907C9F767
:1002300050931901409318010895CF93DF9340DF45
:10024000EC0153DFBC01CE017EDFE6DFDF91CF9111
:100250000895E8E1F1E0CF01429611921192E8177A
:10026000F907D9F70895E82FF92F84E090E041E0ED
:1002700050E064B120813296DA0102C0AA0FBB1FA0
:100280002A95E2F79D012095262324B9019789F745
:100290000895E82FF92F20E030E041E050E065B10B
:1002A000DF01CA01008002C0880F991F0A94E2F79B
:1002B0008095862385B964B13296CA010C9002C03C
:1002C000880F991F0A94E2F7862B84B92F5F3F4F5E
:1002D0002330310521F70895EF92FF921F93CF93BA
:1002E000DF93CDB7DEB728970FB6F894DEBF0FBE09
:1002F000CDBFE0911801F09119013197EC30F10573
:1003000008F094C0E65EFF4F09941A8219821C829D
:100310001B821E821D8281E090E098878F83FE0100
:1003200031960F2EFEE0EF2EF1E0FF2EF02DAE0104
:10033000475F5F4F61E070E082C01A8219821C82C1
:100340001B8281E090E09E838D8318861F82E7CF19
:100350001A8219821C821B8281E090E09E838D8329
:1003600098878F83DCCF1A82198281E090E09C838A
:100370008B831E821D8218861F82D1CF1A8219821A
:1003800081E090E09C838B831E821D8298878F83FF
:10039000C6CF1A82198281E090E09C838B839E8372
:1003A0008D8318861F82BBCF1A82198281E090E06C
:1003B0009C838B839E838D8398878F83B0CF81E0CE
:1003C00090E09A8389831C821B821E821D8218867C
:1003D0001F82A5CF81E090E09A8389831C821B82D3
:1003E0001E821D8298878F839ACF81E090E09A8346
:1003F00089831C821B829E838D8318861F828FCFE8
:1004000081E090E09A8389831C821B829E838D8386
:1004100098878F8384CF81E090E09A8389839C833F
:100420008B831E821D8218861F8279CF1A821982C1
:100430001C821B821E821D8218861F8270CF9F0124
:1004400080819181009759F41BB1CB01D7010C90A9
:1004500002C0880F991F0A94E2F7812B8BB932965C
:10046000D9018D919C9111978130910561F42BB147
:10047000CB01D7010C9002C0880F991F0A94E2F7B4
:10048000809582238BB982E090E0E80EF91EE41794
:10049000F507A9F628960FB6F894DEBF0FBECDBFBC
:1004A000DF91CF911F91FF90EF9008951F920F92CF
:1004B0000FB60F9211242F933F934F935F936F9337
:1004C0007F938F939F93AF93BF93EF93FF93F89492
:1004D00081EE94E00197F1F700C00000D3DD0097B2
:1004E00009F0ABDECFDD009709F4F6DE7894FF91DA
:1004F000EF91BF91AF919F918F917F916F915F919C
:100500004F913F912F910F900FBE0F901F90189514
:10051000EEE0F1E0AF01485F5F4F21E030E06BB10A
:10052000DF01C901008002C0880F991F0A94E2F719
:10053000862B8BB96AB13296C9010C9002C0880F24
:10054000991F0A94E2F7862B8AB9E417F50739F761
:100550000895CF93DF93CDB7DEB72E970FB6F894FB
:10056000DEBF0FBECDBFDE011196E0E0F1E088E016
:1005700001900D928150E1F7DE011996E8E0F1E07B
:1005800086E001900D928150E1F78E01075F1F4FC9
:10059000C8017FDECE01019666DEBADFE8E6F0E054
:1005A000808181608083FE013196ABE6B0E021E07E
:1005B00030E04C9180813296B90102C0660F771FFE
:1005C0008A95E2F7CB01842B8C93E017F10789F72A
:0E05D000789400C000C00000FCCFF894FFCF6C
:1005DE0000000100020007000300040005000000F7
:0805EE000100020003000100FE
:00000001FF
