:1000000019C033C032C056C130C02FC02EC02DC061
:100010002CC02BC02AC029C028C027C026C025C09C
:1000200024C023C022C021C020C01FC01EC01DC0CC
:100030001CC01BC011241FBECFEFD2E0DEBFCDBF5E
:1000400011E0A0E0B1E0ECE9F3E002C005900D9210
:10005000A032B107D9F711E0A0E2B1E001C01D92D2
:10006000A635B107E1F74BD197C1CACFE0E0F1E087
:1000700020E030E063B14081329670E0DB0102C0E5
:10008000B595A7954A95E2F7A0FD02C0822F932F60
:100090002F5F3F4F2430310569F708952B9A23B124
:1000A0002B982C9A43B1FC01EE0FFF1FE050FF4F3D
:1000B00021E030E0008002C0220F331F0A94E2F7F3
:1000C00050E0242335232130310519F021E030E0C0
:1000D00002C022E030E02C982D9A43B1FC01EE0FD3
:1000E000FF1FE050FF4F81E090E0008002C0880FCA
:1000F000991F0A94E2F750E08423952381309105FB
:1001000011F423E030E02D98822F932F0895823050
:10011000910519F1833091052CF48130910509F096
:1001200052C008C08330910551F18430910509F027
:100130004AC037C06230710509F448C063307105A8
:1001400031F06130710531F481E090E0089583E091
:1001500090E008958BE090E0089562307105C9F158
:100160006330710531F06130710531F484E090E065
:10017000089586E090E008958BE090E00895623065
:10018000710551F16330710531F06130710531F461
:1001900087E090E0089589E090E008958BE090E09A
:1001A000089562307105D9F06330710531F0613026
:1001B000710531F48AE090E008958BE090E00895B5
:1001C0008BE090E008958BE090E0089582E090E06D
:1001D000089585E090E0089588E090E0089580E03B
:1001E00090E0089546E251E0809126019091270128
:1001F000FA01425F5F4F2281338121933193E417EB
:10020000F507C9F70895AC01E4E3F1E0CF010E97DB
:100210003291229133832283E817F907C9F750936B
:100220002701409326010895CF93DF938091220107
:1002300090912301009771F481E090E09093230165
:100240008093220113DFEC0129DFBC01CE015FDFC7
:10025000DADF04C01092230110922201DF91CF91C6
:1002600008951092210110922001109237011092EE
:100270003601109239011092380110923B01109210
:100280003A0110923D0110923C0110923F011092F0
:100290003E011092410110924001109243011092D0
:1002A00042011092450110924401109247011092B0
:1002B000460108951F920F920FB60F9211242F93AB
:1002C0003F934F935F936F937F938F939F93AF93DE
:1002D000BF93EF93FF93F894A7DF7894FF91EF918A
:1002E000BF91AF919F918F917F916F915F914F914E
:1002F0003F912F910F900FBE0F901F901895F8947B
:1003000084B18FEF84B9E8E0F1E09F012A5F3F4FAD
:1003100041E050E065B180813296DA0102C0AA0F57
:10032000BB1F8A95E2F7CD018095862385B9E21738
:10033000F30781F7E0E0F1E09F01285F3F4FDF0125
:1003400041E050E065B18C911296EA0102C0CC0FF9
:10035000DD1F8A95E2F7CE01862B85B9A217B30778
:1003600089F7A8E6B0E08C9181608C93ABE6B0E0B1
:1003700041E050E06C9180813296EA0102C0CC0FDE
:10038000DD1F8A95E2F7CE01862B8C932E173F074F
:0C03900089F778942998FECFF894FFCFED
:10039C00000001000200070003000400050001003A
:1003AC000200030004000000000000000000010037
:00000001FF
